{
    "contractName": "BlockchainOracles",
    "abi": [
        {
            "constant": true,
            "inputs": [],
            "name": "getChoice",
            "outputs": [
                {
                    "internalType": "enum BlockchainOracles.oracles",
                    "name": "",
                    "type": "uint8"
                }
            ],
            "payable": false,
            "stateMutability": "view",
            "type": "function"
        },
        {
            "constant": false,
            "inputs": [],
            "name": "setLarge",
            "outputs": [],
            "payable": false,
            "stateMutability": "nonpayable",
            "type": "function"
        },
        {
            "constant": true,
            "inputs": [],
            "name": "getDefaultChoice",
            "outputs": [
                {
                    "internalType": "uint256",
                    "name": "",
                    "type": "uint256"
                }
            ],
            "payable": false,
            "stateMutability": "pure",
            "type": "function"
        }
    ],
    "bytecode": "608060405234801561001057600080fd5b5060dc8061001f6000396000f3fe6080604052348015600f57600080fd5b5060043610603c5760003560e01c806367cb61b6146041578063694ebe4f14606a578063843f7258146072575b600080fd5b6047608a565b60405180826002811115605657fe5b60ff16815260200191505060405180910390f35b60706093565b005b607860a2565b60408051918252519081900360200190f35b60005460ff1690565b6000805460ff19166002179055565b60019056fea265627a7a723158204f2bf9aa03694fe892728d0e8c4959286dc040ef45c685b23c84865e2c4ed68f64736f6c634300050b0032",
    "sourcePath": "d:/Solidity/enum.sol",
    "compiler": {
        "name": "solc",
        "version": "0.5.11+commit.c082d0b4"
    },
    "functionHashes": {
        "getChoice()": "67cb61b6",
        "getDefaultChoice()": "843f7258",
        "setLarge()": "694ebe4f"
    },
    "gasEstimates": {
        "creation": {
            "codeDepositCost": "44000",
            "executionCost": "93",
            "totalCost": "44093"
        },
        "external": {
            "getChoice()": "421",
            "getDefaultChoice()": "220",
            "setLarge()": "20368"
        }
    }
}