{
    "contractName": "Simple",
    "abi": [
        {
            "constant": true,
            "inputs": [
                {
                    "internalType": "uint256",
                    "name": "_a",
                    "type": "uint256"
                },
                {
                    "internalType": "uint256",
                    "name": "_b",
                    "type": "uint256"
                }
            ],
            "name": "arithmetics",
            "outputs": [
                {
                    "internalType": "uint256",
                    "name": "o_sum",
                    "type": "uint256"
                },
                {
                    "internalType": "uint256",
                    "name": "o_product",
                    "type": "uint256"
                }
            ],
            "payable": false,
            "stateMutability": "pure",
            "type": "function"
        }
    ],
    "bytecode": "6080604052348015600f57600080fd5b5060a48061001e6000396000f3fe6080604052348015600f57600080fd5b506004361060285760003560e01c80638c12d8f014602d575b600080fd5b604d60048036036040811015604157600080fd5b50803590602001356066565b6040805192835260208301919091528051918290030190f35b8181019291029056fea265627a7a72315820c9fb516c3c1ef40a37905ba3600919f883e880351bd3071ef543fc0604038e1e64736f6c634300050b0032",
    "sourcePath": "d:/Solidity/many.sol",
    "compiler": {
        "name": "solc",
        "version": "0.5.11+commit.c082d0b4"
    },
    "functionHashes": {
        "arithmetics(uint256,uint256)": "8c12d8f0"
    },
    "gasEstimates": {
        "creation": {
            "codeDepositCost": "32800",
            "executionCost": "87",
            "totalCost": "32887"
        },
        "external": {
            "arithmetics(uint256,uint256)": "274"
        }
    }
}